{
  "_format": "hh-sol-artifact-1",
  "contractName": "Funding",
  "sourceName": "contracts/Funding.sol",
  "abi": [
    {
      "inputs": [
        {
          "internalType": "address",
          "name": "_stablecoin",
          "type": "address"
        },
        {
          "internalType": "address",
          "name": "_invoiceNFT",
          "type": "address"
        }
      ],
      "stateMutability": "nonpayable",
      "type": "constructor"
    },
    {
      "inputs": [
        {
          "internalType": "address",
          "name": "owner",
          "type": "address"
        }
      ],
      "name": "OwnableInvalidOwner",
      "type": "error"
    },
    {
      "inputs": [
        {
          "internalType": "address",
          "name": "account",
          "type": "address"
        }
      ],
      "name": "OwnableUnauthorizedAccount",
      "type": "error"
    },
    {
      "inputs": [],
      "name": "ReentrancyGuardReentrantCall",
      "type": "error"
    },
    {
      "anonymous": false,
      "inputs": [
        {
          "indexed": true,
          "internalType": "uint256",
          "name": "tokenId",
          "type": "uint256"
        },
        {
          "indexed": false,
          "internalType": "address",
          "name": "buyer",
          "type": "address"
        }
      ],
      "name": "BuyerAccepted",
      "type": "event"
    },
    {
      "anonymous": false,
      "inputs": [
        {
          "indexed": true,
          "internalType": "uint256",
          "name": "tokenId",
          "type": "uint256"
        }
      ],
      "name": "InvoiceDefaulted",
      "type": "event"
    },
    {
      "anonymous": false,
      "inputs": [
        {
          "indexed": true,
          "internalType": "uint256",
          "name": "tokenId",
          "type": "uint256"
        },
        {
          "indexed": true,
          "internalType": "address",
          "name": "funder",
          "type": "address"
        },
        {
          "indexed": false,
          "internalType": "uint256",
          "name": "purchasePrice",
          "type": "uint256"
        }
      ],
      "name": "InvoiceFunded",
      "type": "event"
    },
    {
      "anonymous": false,
      "inputs": [
        {
          "indexed": true,
          "internalType": "uint256",
          "name": "tokenId",
          "type": "uint256"
        },
        {
          "indexed": false,
          "internalType": "uint256",
          "name": "faceValue",
          "type": "uint256"
        },
        {
          "indexed": false,
          "internalType": "address",
          "name": "buyer",
          "type": "address"
        },
        {
          "indexed": false,
          "internalType": "uint256",
          "name": "dueDate",
          "type": "uint256"
        }
      ],
      "name": "InvoiceRegistered",
      "type": "event"
    },
    {
      "anonymous": false,
      "inputs": [
        {
          "indexed": true,
          "internalType": "uint256",
          "name": "tokenId",
          "type": "uint256"
        },
        {
          "indexed": true,
          "internalType": "address",
          "name": "funder",
          "type": "address"
        },
        {
          "indexed": false,
          "internalType": "uint256",
          "name": "amount",
          "type": "uint256"
        }
      ],
      "name": "InvoiceSettled",
      "type": "event"
    },
    {
      "anonymous": false,
      "inputs": [
        {
          "indexed": true,
          "internalType": "address",
          "name": "previousOwner",
          "type": "address"
        },
        {
          "indexed": true,
          "internalType": "address",
          "name": "newOwner",
          "type": "address"
        }
      ],
      "name": "OwnershipTransferred",
      "type": "event"
    },
    {
      "inputs": [
        {
          "internalType": "uint256",
          "name": "tokenId",
          "type": "uint256"
        }
      ],
      "name": "acceptInvoice",
      "outputs": [],
      "stateMutability": "nonpayable",
      "type": "function"
    },
    {
      "inputs": [
        {
          "internalType": "uint256",
          "name": "tokenId",
          "type": "uint256"
        }
      ],
      "name": "buyerPay",
      "outputs": [],
      "stateMutability": "nonpayable",
      "type": "function"
    },
    {
      "inputs": [
        {
          "internalType": "uint256",
          "name": "tokenId",
          "type": "uint256"
        },
        {
          "internalType": "uint256",
          "name": "purchasePrice",
          "type": "uint256"
        }
      ],
      "name": "fundInvoiceWhole",
      "outputs": [],
      "stateMutability": "nonpayable",
      "type": "function"
    },
    {
      "inputs": [
        {
          "internalType": "uint256",
          "name": "",
          "type": "uint256"
        }
      ],
      "name": "fundingPositions",
      "outputs": [
        {
          "internalType": "address",
          "name": "funder",
          "type": "address"
        },
        {
          "internalType": "uint256",
          "name": "purchasePrice",
          "type": "uint256"
        },
        {
          "internalType": "uint256",
          "name": "faceValue",
          "type": "uint256"
        },
        {
          "internalType": "uint256",
          "name": "fundedAt",
          "type": "uint256"
        },
        {
          "internalType": "uint256",
          "name": "dueDate",
          "type": "uint256"
        },
        {
          "internalType": "bool",
          "name": "settled",
          "type": "bool"
        },
        {
          "internalType": "bool",
          "name": "defaulted",
          "type": "bool"
        }
      ],
      "stateMutability": "view",
      "type": "function"
    },
    {
      "inputs": [
        {
          "internalType": "uint256",
          "name": "tokenId",
          "type": "uint256"
        }
      ],
      "name": "getInvoiceStatus",
      "outputs": [
        {
          "internalType": "bool",
          "name": "registered",
          "type": "bool"
        },
        {
          "internalType": "bool",
          "name": "buyerAccepted",
          "type": "bool"
        },
        {
          "internalType": "bool",
          "name": "funded",
          "type": "bool"
        },
        {
          "internalType": "bool",
          "name": "settled",
          "type": "bool"
        },
        {
          "internalType": "bool",
          "name": "defaulted",
          "type": "bool"
        }
      ],
      "stateMutability": "view",
      "type": "function"
    },
    {
      "inputs": [
        {
          "internalType": "uint256",
          "name": "",
          "type": "uint256"
        }
      ],
      "name": "invoiceFunded",
      "outputs": [
        {
          "internalType": "bool",
          "name": "",
          "type": "bool"
        }
      ],
      "stateMutability": "view",
      "type": "function"
    },
    {
      "inputs": [],
      "name": "invoiceNFT",
      "outputs": [
        {
          "internalType": "contract IInvoiceNFT",
          "name": "",
          "type": "address"
        }
      ],
      "stateMutability": "view",
      "type": "function"
    },
    {
      "inputs": [
        {
          "internalType": "uint256",
          "name": "",
          "type": "uint256"
        }
      ],
      "name": "invoices",
      "outputs": [
        {
          "internalType": "uint256",
          "name": "faceValue",
          "type": "uint256"
        },
        {
          "internalType": "address",
          "name": "buyer",
          "type": "address"
        },
        {
          "internalType": "uint256",
          "name": "dueDate",
          "type": "uint256"
        },
        {
          "internalType": "bool",
          "name": "registered",
          "type": "bool"
        },
        {
          "internalType": "bool",
          "name": "buyerAccepted",
          "type": "bool"
        }
      ],
      "stateMutability": "view",
      "type": "function"
    },
    {
      "inputs": [
        {
          "internalType": "uint256",
          "name": "tokenId",
          "type": "uint256"
        }
      ],
      "name": "markDefault",
      "outputs": [],
      "stateMutability": "nonpayable",
      "type": "function"
    },
    {
      "inputs": [],
      "name": "owner",
      "outputs": [
        {
          "internalType": "address",
          "name": "",
          "type": "address"
        }
      ],
      "stateMutability": "view",
      "type": "function"
    },
    {
      "inputs": [
        {
          "internalType": "uint256",
          "name": "tokenId",
          "type": "uint256"
        },
        {
          "internalType": "uint256",
          "name": "faceValue",
          "type": "uint256"
        },
        {
          "internalType": "address",
          "name": "buyer",
          "type": "address"
        },
        {
          "internalType": "uint256",
          "name": "dueDate",
          "type": "uint256"
        }
      ],
      "name": "registerInvoice",
      "outputs": [],
      "stateMutability": "nonpayable",
      "type": "function"
    },
    {
      "inputs": [],
      "name": "renounceOwnership",
      "outputs": [],
      "stateMutability": "nonpayable",
      "type": "function"
    },
    {
      "inputs": [],
      "name": "reputationRegistry",
      "outputs": [
        {
          "internalType": "contract IReputationRegistry",
          "name": "",
          "type": "address"
        }
      ],
      "stateMutability": "view",
      "type": "function"
    },
    {
      "inputs": [
        {
          "internalType": "address",
          "name": "_reputationRegistry",
          "type": "address"
        }
      ],
      "name": "setReputationRegistry",
      "outputs": [],
      "stateMutability": "nonpayable",
      "type": "function"
    },
    {
      "inputs": [],
      "name": "stablecoin",
      "outputs": [
        {
          "internalType": "contract IERC20",
          "name": "",
          "type": "address"
        }
      ],
      "stateMutability": "view",
      "type": "function"
    },
    {
      "inputs": [
        {
          "internalType": "address",
          "name": "newOwner",
          "type": "address"
        }
      ],
      "name": "transferOwnership",
      "outputs": [],
      "stateMutability": "nonpayable",
      "type": "function"
    }
  ],
  "bytecode": "0x60806040523480156200001157600080fd5b50604051620016cd380380620016cd83398101604081905262000034916200010a565b33806200005b57604051631e4fbdf760e01b81526000600482015260240160405180910390fd5b62000066816200009d565b5060018055600280546001600160a01b039384166001600160a01b0319918216179091556003805492909316911617905562000142565b600080546001600160a01b038381166001600160a01b0319831681178455604051919092169283917f8be0079c531659141344cd1fd0a4f28419497f9722a3daafe3b4186f6b6457e09190a35050565b80516001600160a01b03811681146200010557600080fd5b919050565b600080604083850312156200011e57600080fd5b6200012983620000ed565b91506200013960208401620000ed565b90509250929050565b61157b80620001526000396000f3fe608060405234801561001057600080fd5b50600436106101005760003560e01c80638da5cb5b11610097578063e1d927c811610066578063e1d927c814610386578063e9cbd82214610399578063f2fde38b146103ac578063f3c3d215146103bf57600080fd5b80638da5cb5b1461033c5780639cdef43e1461034d578063a4e137d014610360578063c8db44e31461037357600080fd5b80634bb6f06d116100d35780634bb6f06d146101ee5780634e6d140514610219578063715018a6146102985780637d69ba33146102a057600080fd5b806302b91cd214610105578063178c5b521461013d57806318d3dbd8146101c65780633f0ce714146101db575b600080fd5b61012861011336600461132f565b60076020526000908152604090205460ff1681565b60405190151581526020015b60405180910390f35b61019461014b36600461132f565b6000908152600560208181526040808420600683528185206003909101546007909352932054929091015460ff8083169461010093849004821694821693838316930490911690565b60408051951515865293151560208601529115159284019290925290151560608301521515608082015260a001610134565b6101d96101d4366004611348565b6103d2565b005b6101d96101e936600461137f565b61081e565b600354610201906001600160a01b031681565b6040516001600160a01b039091168152602001610134565b61026461022736600461132f565b600560205260009081526040902080546001820154600283015460039093015491926001600160a01b039091169160ff8082169161010090041685565b604080519586526001600160a01b03909416602086015292840191909152151560608301521515608082015260a001610134565b6101d9610848565b6102f96102ae36600461132f565b6006602052600090815260409020805460018201546002830154600384015460048501546005909501546001600160a01b039094169492939192909160ff8082169161010090041687565b604080516001600160a01b03909816885260208801969096529486019390935260608501919091526080840152151560a0830152151560c082015260e001610134565b6000546001600160a01b0316610201565b6101d961035b36600461132f565b61085c565b6101d961036e3660046113a3565b610c71565b600454610201906001600160a01b031681565b6101d961039436600461132f565b610e95565b600254610201906001600160a01b031681565b6101d96103ba36600461137f565b611130565b6101d96103cd36600461132f565b61116b565b6103da611288565b6000828152600560205260409020600381015460ff166104155760405162461bcd60e51b815260040161040c906113e2565b60405180910390fd5b6003810154610100900460ff166104675760405162461bcd60e51b8152602060048201526016602482015275109d5e595c881a185cc81b9bdd081858d8d95c1d195960521b604482015260640161040c565b60008381526007602052604090205460ff16156104bf5760405162461bcd60e51b8152602060048201526016602482015275125b9d9bda58d948185b1c9958591e48199d5b99195960521b604482015260640161040c565b6000821180156104d0575080548211155b6105155760405162461bcd60e51b8152602060048201526016602482015275496e76616c696420707572636861736520707269636560501b604482015260640161040c565b60035460405163484d384560e11b8152600481018590526000916001600160a01b03169063909a708a90602401600060405180830381865afa15801561055f573d6000803e3d6000fd5b505050506040513d6000823e601f3d908101601f191682016040526105879190810190611428565b50919250506001600160a01b03821690506105da5760405162461bcd60e51b8152602060048201526013602482015272125b9d985b1a59081a5b9d9bda58d948139195606a1b604482015260640161040c565b6002546040516323b872dd60e01b81523360048201526001600160a01b03838116602483015260448201869052909116906323b872dd906064016020604051808303816000875af1158015610633573d6000803e3d6000fd5b505050506040513d601f19601f820116820180604052508101906106579190611523565b6106955760405162461bcd60e51b815260206004820152600f60248201526e151c985b9cd9995c8819985a5b1959608a1b604482015260640161040c565b6040805160e08101825233815260208082018681528554838501908152426060850190815260028089015460808701908152600060a0880181815260c089018281528e8352600689528a832099518a546001600160a01b039182166001600160a01b0319909116178b55975160018b8101919091559651948a0194909455935160038901559051600480890191909155925160059097018054925115156101000261ff00199815159890981661ffff1990931692909217969096179055600790935293909220805460ff1916909317909255905416156107d85760048054604051636a08b51160e01b81526001600160a01b038481169382019390935260056024820152911690636a08b51190604401600060405180830381600087803b1580156107bf57600080fd5b505af11580156107d3573d6000803e3d6000fd5b505050505b604051838152339085907fa89eb6891733765ee1680954e6c13fbca417ad37abee83d50d8efdb86a6db5239060200160405180910390a3505061081a60018055565b5050565b6108266112b2565b600480546001600160a01b0319166001600160a01b0392909216919091179055565b6108506112b2565b61085a60006112df565b565b610864611288565b60008181526005602090815260408083206006909252909120600382015460ff166108a15760405162461bcd60e51b815260040161040c906113e2565b60008381526007602052604090205460ff166108f45760405162461bcd60e51b8152602060048201526012602482015271125b9d9bda58d9481b9bdd08199d5b99195960721b604482015260640161040c565b600581015460ff161561093b5760405162461bcd60e51b815260206004820152600f60248201526e105b1c9958591e481cd95d1d1b1959608a1b604482015260640161040c565b6005810154610100900460ff16156109895760405162461bcd60e51b8152602060048201526011602482015270125b9d9bda58d948191959985d5b1d1959607a1b604482015260640161040c565b600254815483546040516323b872dd60e01b81523360048201526001600160a01b03928316602482015260448101919091529116906323b872dd906064016020604051808303816000875af11580156109e6573d6000803e3d6000fd5b505050506040513d601f19601f82011682018060405250810190610a0a9190611523565b610a485760405162461bcd60e51b815260206004820152600f60248201526e151c985b9cd9995c8819985a5b1959608a1b604482015260640161040c565b60058101805460ff191660011790556004546001600160a01b031615610c1e5760035460405163484d384560e11b8152600481018590526000916001600160a01b03169063909a708a90602401600060405180830381865afa158015610ab2573d6000803e3d6000fd5b505050506040513d6000823e601f3d908101601f19168201604052610ada9190810190611428565b505060048054604051636a08b51160e01b81526001600160a01b0380861693820193909352600a60248201529394501691636a08b5119150604401600060405180830381600087803b158015610b2f57600080fd5b505af1158015610b43573d6000803e3d6000fd5b5050600480546001870154604051636a08b51160e01b81526001600160a01b039182169381019390935260056024840152169250636a08b5119150604401600060405180830381600087803b158015610b9b57600080fd5b505af1158015610baf573d6000803e3d6000fd5b5050600480548554604051636a08b51160e01b81526001600160a01b039182169381019390935260036024840152169250636a08b5119150604401600060405180830381600087803b158015610c0457600080fd5b505af1158015610c18573d6000803e3d6000fd5b50505050505b805482546040519081526001600160a01b039091169084907ffaae2f95f5d6dbc3472432833f1c636ce82772334060ab8a884aa17e82ff71799060200160405180910390a35050610c6e60018055565b50565b610c796112b2565b60008481526005602052604090206003015460ff1615610cdb5760405162461bcd60e51b815260206004820152601a60248201527f496e766f69636520616c72656164792072656769737465726564000000000000604482015260640161040c565b60008311610d205760405162461bcd60e51b8152602060048201526012602482015271496e76616c696420666163652076616c756560701b604482015260640161040c565b6001600160a01b038216610d6e5760405162461bcd60e51b8152602060048201526015602482015274496e76616c6964206275796572206164647265737360581b604482015260640161040c565b428111610dbd5760405162461bcd60e51b815260206004820152601a60248201527f4475652064617465206d75737420626520696e20667574757265000000000000604482015260640161040c565b6040805160a0810182528481526001600160a01b03848116602080840182815284860187815260016060808801828152600060808a018181528f825260058852908b902099518a55945192890180546001600160a01b0319169390981692909217909655905160028701555160039095018054915161ffff1990921695151561ff00191695909517610100911515919091021790935583518781529283015291810183905285917fe9de8720d71ec0b10cf0cece2b876aa85a3a999f6b6cfb5cd49b75ddc3559df8910160405180910390a250505050565b610e9d6112b2565b600081815260066020908152604080832060058352818420600790935292205460ff16610f015760405162461bcd60e51b8152602060048201526012602482015271125b9d9bda58d9481b9bdd08199d5b99195960721b604482015260640161040c565b600582015460ff1615610f485760405162461bcd60e51b815260206004820152600f60248201526e105b1c9958591e481cd95d1d1b1959608a1b604482015260640161040c565b80600201544211610f8f5760405162461bcd60e51b81526020600482015260116024820152704e6f74207061737420647565206461746560781b604482015260640161040c565b60058201805461ff0019166101001790556004546001600160a01b0316156111005760035460405163484d384560e11b8152600481018590526000916001600160a01b03169063909a708a90602401600060405180830381865afa158015610ffb573d6000803e3d6000fd5b505050506040513d6000823e601f3d908101601f191682016040526110239190810190611428565b505060048054604051636a08b51160e01b81526001600160a01b038086169382019390935260131960248201529394501691636a08b5119150604401600060405180830381600087803b15801561107957600080fd5b505af115801561108d573d6000803e3d6000fd5b5050600480546001860154604051636a08b51160e01b81526001600160a01b0391821693810193909352600e196024840152169250636a08b5119150604401600060405180830381600087803b1580156110e657600080fd5b505af11580156110fa573d6000803e3d6000fd5b50505050505b60405183907fdad3d8c24c5e0a13ffb0c0fa573014d3c4ba10367d5cba3549fa7c9ac18b93a490600090a2505050565b6111386112b2565b6001600160a01b03811661116257604051631e4fbdf760e01b81526000600482015260240161040c565b610c6e816112df565b6000818152600560205260409020600381015460ff1661119d5760405162461bcd60e51b815260040161040c906113e2565b6003810154610100900460ff16156111ea5760405162461bcd60e51b815260206004820152601060248201526f105b1c9958591e481858d8d95c1d195960821b604482015260640161040c565b60018101546001600160a01b0316331461123e5760405162461bcd60e51b815260206004820152601560248201527413db9b1e48189d5e595c8818d85b881858d8d95c1d605a1b604482015260640161040c565b60038101805461ff00191661010017905560405133815282907f4de25051c2da32c24776dbbc317f96ef2fda8e27a9d6a54d7c1cf4337f86dc499060200160405180910390a25050565b6002600154036112ab57604051633ee5aeb560e01b815260040160405180910390fd5b6002600155565b6000546001600160a01b0316331461085a5760405163118cdaa760e01b815233600482015260240161040c565b600080546001600160a01b038381166001600160a01b0319831681178455604051919092169283917f8be0079c531659141344cd1fd0a4f28419497f9722a3daafe3b4186f6b6457e09190a35050565b60006020828403121561134157600080fd5b5035919050565b6000806040838503121561135b57600080fd5b50508035926020909101359150565b6001600160a01b0381168114610c6e57600080fd5b60006020828403121561139157600080fd5b813561139c8161136a565b9392505050565b600080600080608085870312156113b957600080fd5b843593506020850135925060408501356113d28161136a565b9396929550929360600135925050565b602080825260169082015275125b9d9bda58d9481b9bdd081c9959da5cdd195c995960521b604082015260600190565b634e487b7160e01b600052604160045260246000fd5b6000806000806080858703121561143e57600080fd5b84516114498161136a565b8094505060208086015161145c8161136a565b60408701516060880151919550935067ffffffffffffffff8082111561148157600080fd5b818801915088601f83011261149557600080fd5b8151818111156114a7576114a7611412565b604051601f8201601f19908116603f011681019083821181831017156114cf576114cf611412565b816040528281528b868487010111156114e757600080fd5b600093505b8284101561150957848401860151818501870152928501926114ec565b600086848301015280965050505050505092959194509250565b60006020828403121561153557600080fd5b8151801515811461139c57600080fdfea2646970667358221220b7795ce90894f13a9affff3ee21af22f6a4e68505ecdda8956f5f18acbb8938064736f6c63430008140033",
  "linkReferences": {},
  "deployedLinkReferences": {}
}