{
  "_format": "hh-sol-artifact-1",
  "contractName": "InvoiceNFT",
  "sourceName": "contracts/InvoiceNFT.sol",
  "abi": [
    {
      "inputs": [],
      "stateMutability": "nonpayable",
      "type": "constructor"
    },
    {
      "inputs": [],
      "name": "AccessControlBadConfirmation",
      "type": "error"
    },
    {
      "inputs": [
        {
          "internalType": "address",
          "name": "account",
          "type": "address"
        },
        {
          "internalType": "bytes32",
          "name": "neededRole",
          "type": "bytes32"
        }
      ],
      "name": "AccessControlUnauthorizedAccount",
      "type": "error"
    },
    {
      "inputs": [
        {
          "internalType": "address",
          "name": "sender",
          "type": "address"
        },
        {
          "internalType": "uint256",
          "name": "tokenId",
          "type": "uint256"
        },
        {
          "internalType": "address",
          "name": "owner",
          "type": "address"
        }
      ],
      "name": "ERC721IncorrectOwner",
      "type": "error"
    },
    {
      "inputs": [
        {
          "internalType": "address",
          "name": "operator",
          "type": "address"
        },
        {
          "internalType": "uint256",
          "name": "tokenId",
          "type": "uint256"
        }
      ],
      "name": "ERC721InsufficientApproval",
      "type": "error"
    },
    {
      "inputs": [
        {
          "internalType": "address",
          "name": "approver",
          "type": "address"
        }
      ],
      "name": "ERC721InvalidApprover",
      "type": "error"
    },
    {
      "inputs": [
        {
          "internalType": "address",
          "name": "operator",
          "type": "address"
        }
      ],
      "name": "ERC721InvalidOperator",
      "type": "error"
    },
    {
      "inputs": [
        {
          "internalType": "address",
          "name": "owner",
          "type": "address"
        }
      ],
      "name": "ERC721InvalidOwner",
      "type": "error"
    },
    {
      "inputs": [
        {
          "internalType": "address",
          "name": "receiver",
          "type": "address"
        }
      ],
      "name": "ERC721InvalidReceiver",
      "type": "error"
    },
    {
      "inputs": [
        {
          "internalType": "address",
          "name": "sender",
          "type": "address"
        }
      ],
      "name": "ERC721InvalidSender",
      "type": "error"
    },
    {
      "inputs": [
        {
          "internalType": "uint256",
          "name": "tokenId",
          "type": "uint256"
        }
      ],
      "name": "ERC721NonexistentToken",
      "type": "error"
    },
    {
      "anonymous": false,
      "inputs": [
        {
          "indexed": true,
          "internalType": "address",
          "name": "owner",
          "type": "address"
        },
        {
          "indexed": true,
          "internalType": "address",
          "name": "approved",
          "type": "address"
        },
        {
          "indexed": true,
          "internalType": "uint256",
          "name": "tokenId",
          "type": "uint256"
        }
      ],
      "name": "Approval",
      "type": "event"
    },
    {
      "anonymous": false,
      "inputs": [
        {
          "indexed": true,
          "internalType": "address",
          "name": "owner",
          "type": "address"
        },
        {
          "indexed": true,
          "internalType": "address",
          "name": "operator",
          "type": "address"
        },
        {
          "indexed": false,
          "internalType": "bool",
          "name": "approved",
          "type": "bool"
        }
      ],
      "name": "ApprovalForAll",
      "type": "event"
    },
    {
      "anonymous": false,
      "inputs": [
        {
          "indexed": false,
          "internalType": "uint256",
          "name": "_fromTokenId",
          "type": "uint256"
        },
        {
          "indexed": false,
          "internalType": "uint256",
          "name": "_toTokenId",
          "type": "uint256"
        }
      ],
      "name": "BatchMetadataUpdate",
      "type": "event"
    },
    {
      "anonymous": false,
      "inputs": [
        {
          "indexed": true,
          "internalType": "uint256",
          "name": "tokenId",
          "type": "uint256"
        },
        {
          "indexed": true,
          "internalType": "address",
          "name": "supplier",
          "type": "address"
        },
        {
          "indexed": true,
          "internalType": "address",
          "name": "buyer",
          "type": "address"
        },
        {
          "indexed": false,
          "internalType": "bytes32",
          "name": "invoiceHash",
          "type": "bytes32"
        },
        {
          "indexed": false,
          "internalType": "string",
          "name": "tokenURI",
          "type": "string"
        }
      ],
      "name": "InvoiceMinted",
      "type": "event"
    },
    {
      "anonymous": false,
      "inputs": [
        {
          "indexed": false,
          "internalType": "uint256",
          "name": "_tokenId",
          "type": "uint256"
        }
      ],
      "name": "MetadataUpdate",
      "type": "event"
    },
    {
      "anonymous": false,
      "inputs": [
        {
          "indexed": true,
          "internalType": "bytes32",
          "name": "role",
          "type": "bytes32"
        },
        {
          "indexed": true,
          "internalType": "bytes32",
          "name": "previousAdminRole",
          "type": "bytes32"
        },
        {
          "indexed": true,
          "internalType": "bytes32",
          "name": "newAdminRole",
          "type": "bytes32"
        }
      ],
      "name": "RoleAdminChanged",
      "type": "event"
    },
    {
      "anonymous": false,
      "inputs": [
        {
          "indexed": true,
          "internalType": "bytes32",
          "name": "role",
          "type": "bytes32"
        },
        {
          "indexed": true,
          "internalType": "address",
          "name": "account",
          "type": "address"
        },
        {
          "indexed": true,
          "internalType": "address",
          "name": "sender",
          "type": "address"
        }
      ],
      "name": "RoleGranted",
      "type": "event"
    },
    {
      "anonymous": false,
      "inputs": [
        {
          "indexed": true,
          "internalType": "bytes32",
          "name": "role",
          "type": "bytes32"
        },
        {
          "indexed": true,
          "internalType": "address",
          "name": "account",
          "type": "address"
        },
        {
          "indexed": true,
          "internalType": "address",
          "name": "sender",
          "type": "address"
        }
      ],
      "name": "RoleRevoked",
      "type": "event"
    },
    {
      "anonymous": false,
      "inputs": [
        {
          "indexed": true,
          "internalType": "address",
          "name": "from",
          "type": "address"
        },
        {
          "indexed": true,
          "internalType": "address",
          "name": "to",
          "type": "address"
        },
        {
          "indexed": true,
          "internalType": "uint256",
          "name": "tokenId",
          "type": "uint256"
        }
      ],
      "name": "Transfer",
      "type": "event"
    },
    {
      "inputs": [],
      "name": "DEFAULT_ADMIN_ROLE",
      "outputs": [
        {
          "internalType": "bytes32",
          "name": "",
          "type": "bytes32"
        }
      ],
      "stateMutability": "view",
      "type": "function"
    },
    {
      "inputs": [],
      "name": "VERIFIER_ROLE",
      "outputs": [
        {
          "internalType": "bytes32",
          "name": "",
          "type": "bytes32"
        }
      ],
      "stateMutability": "view",
      "type": "function"
    },
    {
      "inputs": [
        {
          "internalType": "address",
          "name": "to",
          "type": "address"
        },
        {
          "internalType": "uint256",
          "name": "tokenId",
          "type": "uint256"
        }
      ],
      "name": "approve",
      "outputs": [],
      "stateMutability": "nonpayable",
      "type": "function"
    },
    {
      "inputs": [
        {
          "internalType": "address",
          "name": "owner",
          "type": "address"
        }
      ],
      "name": "balanceOf",
      "outputs": [
        {
          "internalType": "uint256",
          "name": "",
          "type": "uint256"
        }
      ],
      "stateMutability": "view",
      "type": "function"
    },
    {
      "inputs": [
        {
          "internalType": "uint256",
          "name": "tokenId",
          "type": "uint256"
        }
      ],
      "name": "getApproved",
      "outputs": [
        {
          "internalType": "address",
          "name": "",
          "type": "address"
        }
      ],
      "stateMutability": "view",
      "type": "function"
    },
    {
      "inputs": [
        {
          "internalType": "uint256",
          "name": "tokenId",
          "type": "uint256"
        }
      ],
      "name": "getInvoiceDetails",
      "outputs": [
        {
          "internalType": "address",
          "name": "supplier",
          "type": "address"
        },
        {
          "internalType": "address",
          "name": "buyer",
          "type": "address"
        },
        {
          "internalType": "bytes32",
          "name": "invoiceHash",
          "type": "bytes32"
        },
        {
          "internalType": "string",
          "name": "uri",
          "type": "string"
        }
      ],
      "stateMutability": "view",
      "type": "function"
    },
    {
      "inputs": [
        {
          "internalType": "bytes32",
          "name": "role",
          "type": "bytes32"
        }
      ],
      "name": "getRoleAdmin",
      "outputs": [
        {
          "internalType": "bytes32",
          "name": "",
          "type": "bytes32"
        }
      ],
      "stateMutability": "view",
      "type": "function"
    },
    {
      "inputs": [
        {
          "internalType": "bytes32",
          "name": "role",
          "type": "bytes32"
        },
        {
          "internalType": "address",
          "name": "account",
          "type": "address"
        }
      ],
      "name": "grantRole",
      "outputs": [],
      "stateMutability": "nonpayable",
      "type": "function"
    },
    {
      "inputs": [
        {
          "internalType": "bytes32",
          "name": "role",
          "type": "bytes32"
        },
        {
          "internalType": "address",
          "name": "account",
          "type": "address"
        }
      ],
      "name": "hasRole",
      "outputs": [
        {
          "internalType": "bool",
          "name": "",
          "type": "bool"
        }
      ],
      "stateMutability": "view",
      "type": "function"
    },
    {
      "inputs": [
        {
          "internalType": "bytes32",
          "name": "",
          "type": "bytes32"
        }
      ],
      "name": "invoiceHashExists",
      "outputs": [
        {
          "internalType": "bool",
          "name": "",
          "type": "bool"
        }
      ],
      "stateMutability": "view",
      "type": "function"
    },
    {
      "inputs": [
        {
          "internalType": "address",
          "name": "owner",
          "type": "address"
        },
        {
          "internalType": "address",
          "name": "operator",
          "type": "address"
        }
      ],
      "name": "isApprovedForAll",
      "outputs": [
        {
          "internalType": "bool",
          "name": "",
          "type": "bool"
        }
      ],
      "stateMutability": "view",
      "type": "function"
    },
    {
      "inputs": [
        {
          "internalType": "address",
          "name": "supplier",
          "type": "address"
        },
        {
          "internalType": "address",
          "name": "buyer",
          "type": "address"
        },
        {
          "internalType": "bytes32",
          "name": "invoiceHash",
          "type": "bytes32"
        },
        {
          "internalType": "string",
          "name": "uri",
          "type": "string"
        }
      ],
      "name": "mintInvoice",
      "outputs": [
        {
          "internalType": "uint256",
          "name": "",
          "type": "uint256"
        }
      ],
      "stateMutability": "nonpayable",
      "type": "function"
    },
    {
      "inputs": [],
      "name": "name",
      "outputs": [
        {
          "internalType": "string",
          "name": "",
          "type": "string"
        }
      ],
      "stateMutability": "view",
      "type": "function"
    },
    {
      "inputs": [
        {
          "internalType": "uint256",
          "name": "tokenId",
          "type": "uint256"
        }
      ],
      "name": "ownerOf",
      "outputs": [
        {
          "internalType": "address",
          "name": "",
          "type": "address"
        }
      ],
      "stateMutability": "view",
      "type": "function"
    },
    {
      "inputs": [
        {
          "internalType": "bytes32",
          "name": "role",
          "type": "bytes32"
        },
        {
          "internalType": "address",
          "name": "callerConfirmation",
          "type": "address"
        }
      ],
      "name": "renounceRole",
      "outputs": [],
      "stateMutability": "nonpayable",
      "type": "function"
    },
    {
      "inputs": [
        {
          "internalType": "bytes32",
          "name": "role",
          "type": "bytes32"
        },
        {
          "internalType": "address",
          "name": "account",
          "type": "address"
        }
      ],
      "name": "revokeRole",
      "outputs": [],
      "stateMutability": "nonpayable",
      "type": "function"
    },
    {
      "inputs": [
        {
          "internalType": "address",
          "name": "from",
          "type": "address"
        },
        {
          "internalType": "address",
          "name": "to",
          "type": "address"
        },
        {
          "internalType": "uint256",
          "name": "tokenId",
          "type": "uint256"
        }
      ],
      "name": "safeTransferFrom",
      "outputs": [],
      "stateMutability": "nonpayable",
      "type": "function"
    },
    {
      "inputs": [
        {
          "internalType": "address",
          "name": "from",
          "type": "address"
        },
        {
          "internalType": "address",
          "name": "to",
          "type": "address"
        },
        {
          "internalType": "uint256",
          "name": "tokenId",
          "type": "uint256"
        },
        {
          "internalType": "bytes",
          "name": "data",
          "type": "bytes"
        }
      ],
      "name": "safeTransferFrom",
      "outputs": [],
      "stateMutability": "nonpayable",
      "type": "function"
    },
    {
      "inputs": [
        {
          "internalType": "address",
          "name": "operator",
          "type": "address"
        },
        {
          "internalType": "bool",
          "name": "approved",
          "type": "bool"
        }
      ],
      "name": "setApprovalForAll",
      "outputs": [],
      "stateMutability": "nonpayable",
      "type": "function"
    },
    {
      "inputs": [
        {
          "internalType": "bytes4",
          "name": "interfaceId",
          "type": "bytes4"
        }
      ],
      "name": "supportsInterface",
      "outputs": [
        {
          "internalType": "bool",
          "name": "",
          "type": "bool"
        }
      ],
      "stateMutability": "view",
      "type": "function"
    },
    {
      "inputs": [],
      "name": "symbol",
      "outputs": [
        {
          "internalType": "string",
          "name": "",
          "type": "string"
        }
      ],
      "stateMutability": "view",
      "type": "function"
    },
    {
      "inputs": [
        {
          "internalType": "uint256",
          "name": "",
          "type": "uint256"
        }
      ],
      "name": "tokenBuyer",
      "outputs": [
        {
          "internalType": "address",
          "name": "",
          "type": "address"
        }
      ],
      "stateMutability": "view",
      "type": "function"
    },
    {
      "inputs": [
        {
          "internalType": "uint256",
          "name": "",
          "type": "uint256"
        }
      ],
      "name": "tokenSupplier",
      "outputs": [
        {
          "internalType": "address",
          "name": "",
          "type": "address"
        }
      ],
      "stateMutability": "view",
      "type": "function"
    },
    {
      "inputs": [
        {
          "internalType": "uint256",
          "name": "",
          "type": "uint256"
        }
      ],
      "name": "tokenToInvoiceHash",
      "outputs": [
        {
          "internalType": "bytes32",
          "name": "",
          "type": "bytes32"
        }
      ],
      "stateMutability": "view",
      "type": "function"
    },
    {
      "inputs": [
        {
          "internalType": "uint256",
          "name": "tokenId",
          "type": "uint256"
        }
      ],
      "name": "tokenURI",
      "outputs": [
        {
          "internalType": "string",
          "name": "",
          "type": "string"
        }
      ],
      "stateMutability": "view",
      "type": "function"
    },
    {
      "inputs": [
        {
          "internalType": "address",
          "name": "from",
          "type": "address"
        },
        {
          "internalType": "address",
          "name": "to",
          "type": "address"
        },
        {
          "internalType": "uint256",
          "name": "tokenId",
          "type": "uint256"
        }
      ],
      "name": "transferFrom",
      "outputs": [],
      "stateMutability": "nonpayable",
      "type": "function"
    }
  ],
  "bytecode": "0x60806040523480156200001157600080fd5b506040518060400160405280601481526020017f4465537570706c7920496e766f696365204e4654000000000000000000000000815250604051806040016040528060058152602001642229a4a72b60d91b815250816000908162000077919062000224565b50600162000086828262000224565b506200009891506000905033620000cc565b50620000c57f0ce23c3e399818cfee81a7ab0880f714e53d7672b08df0fa62f2843416e1ea0933620000cc565b50620002f0565b60008281526007602090815260408083206001600160a01b038516845290915281205460ff16620001755760008381526007602090815260408083206001600160a01b03861684529091529020805460ff191660011790556200012c3390565b6001600160a01b0316826001600160a01b0316847f2f8788117e7eff1d82e926ec794901d17c78024a50270940304540a733656f0d60405160405180910390a450600162000179565b5060005b92915050565b634e487b7160e01b600052604160045260246000fd5b600181811c90821680620001aa57607f821691505b602082108103620001cb57634e487b7160e01b600052602260045260246000fd5b50919050565b601f8211156200021f57600081815260208120601f850160051c81016020861015620001fa5750805b601f850160051c820191505b818110156200021b5782815560010162000206565b5050505b505050565b81516001600160401b038111156200024057620002406200017f565b620002588162000251845462000195565b84620001d1565b602080601f831160018114620002905760008415620002775750858301515b600019600386901b1c1916600185901b1785556200021b565b600085815260208120601f198616915b82811015620002c157888601518255948401946001909101908401620002a0565b5085821015620002e05787850151600019600388901b60f8161c191681555b5050505050600190811b01905550565b61197b80620003006000396000f3fe608060405234801561001057600080fd5b506004361061018e5760003560e01c806370a08231116100de578063b88d4fde11610097578063d0a7283411610071578063d0a72834146103b7578063d547741f146103da578063e7705db6146103ed578063e985e9c51461041457600080fd5b8063b88d4fde14610368578063bb2b117f1461037b578063c87b56dd146103a457600080fd5b806370a08231146102fc578063909a708a1461030f57806391d148541461033257806395d89b4114610345578063a217fddf1461034d578063a22cb4651461035557600080fd5b80632a9e9d5e1161014b57806342842e0e1161012557806342842e0e1461029a5780634828fa19146102ad57806354161657146102c05780636352211e146102e957600080fd5b80632a9e9d5e146102545780632f2ff15d1461027457806336568abe1461028757600080fd5b806301ffc9a71461019357806306fdde03146101bb578063081812fc146101d0578063095ea7b3146101fb57806323b872dd14610210578063248a9ca314610223575b600080fd5b6101a66101a136600461146c565b610427565b60405190151581526020015b60405180910390f35b6101c3610438565b6040516101b291906114d9565b6101e36101de3660046114ec565b6104ca565b6040516001600160a01b0390911681526020016101b2565b61020e610209366004611521565b6104f3565b005b61020e61021e36600461154b565b610502565b6102466102313660046114ec565b60009081526007602052604090206001015490565b6040519081526020016101b2565b6102466102623660046114ec565b600a6020526000908152604090205481565b61020e610282366004611587565b610592565b61020e610295366004611587565b6105b7565b61020e6102a836600461154b565b6105ef565b6102466102bb36600461163f565b61060a565b6101e36102ce3660046114ec565b600c602052600090815260409020546001600160a01b031681565b6101e36102f73660046114ec565b61080a565b61024661030a3660046116bb565b610815565b61032261031d3660046114ec565b61085d565b6040516101b294939291906116d6565b6101a6610340366004611587565b6108f7565b6101c3610922565b610246600081565b61020e610363366004611713565b610931565b61020e61037636600461163f565b61093c565b6101e36103893660046114ec565b600b602052600090815260409020546001600160a01b031681565b6101c36103b23660046114ec565b610954565b6101a66103c53660046114ec565b60096020526000908152604090205460ff1681565b61020e6103e8366004611587565b61095f565b6102467f0ce23c3e399818cfee81a7ab0880f714e53d7672b08df0fa62f2843416e1ea0981565b6101a661042236600461174f565b610984565b6000610432826109b2565b92915050565b60606000805461044790611779565b80601f016020809104026020016040519081016040528092919081815260200182805461047390611779565b80156104c05780601f10610495576101008083540402835291602001916104c0565b820191906000526020600020905b8154815290600101906020018083116104a357829003601f168201915b5050505050905090565b60006104d5826109d7565b506000828152600460205260409020546001600160a01b0316610432565b6104fe828233610a10565b5050565b6001600160a01b03821661053157604051633250574960e11b8152600060048201526024015b60405180910390fd5b600061053e838333610a1d565b9050836001600160a01b0316816001600160a01b03161461058c576040516364283d7b60e01b81526001600160a01b0380861660048301526024820184905282166044820152606401610528565b50505050565b6000828152600760205260409020600101546105ad81610b16565b61058c8383610b23565b6001600160a01b03811633146105e05760405163334bd91960e11b815260040160405180910390fd5b6105ea8282610bb7565b505050565b6105ea8383836040518060200160405280600081525061093c565b60007f0ce23c3e399818cfee81a7ab0880f714e53d7672b08df0fa62f2843416e1ea0961063681610b16565b60008481526009602052604090205460ff161561068e5760405162461bcd60e51b8152602060048201526016602482015275125b9d9bda58d948185b1c9958591e481b5a5b9d195960521b6044820152606401610528565b6001600160a01b0386166106e45760405162461bcd60e51b815260206004820152601860248201527f496e76616c696420737570706c696572206164647265737300000000000000006044820152606401610528565b6001600160a01b0385166107325760405162461bcd60e51b8152602060048201526015602482015274496e76616c6964206275796572206164647265737360581b6044820152606401610528565b60088054906000610742836117b3565b90915550506008546107548782610c24565b61075e8185610c3e565b6000858152600960209081526040808320805460ff19166001179055838352600a8252808320889055600b825280832080546001600160a01b03808d166001600160a01b03199283168117909355600c909452938290208054938b169390941683179093555190919083907fb1a5569ac2fb0485f07b64609be9a1acc23bf1d5f645851b5c83dbfb31687f74906107f8908a908a906117da565b60405180910390a49695505050505050565b6000610432826109d7565b60006001600160a01b038216610841576040516322718ad960e21b815260006004820152602401610528565b506001600160a01b031660009081526003602052604090205490565b6000806000606061086d85610c8e565b6108b05760405162461bcd60e51b8152602060048201526014602482015273151bdad95b88191bd95cc81b9bdd08195e1a5cdd60621b6044820152606401610528565b6000858152600b6020908152604080832054600c835281842054600a9093529220546001600160a01b0392831696509116935091506108ee85610954565b90509193509193565b60009182526007602090815260408084206001600160a01b0393909316845291905290205460ff1690565b60606001805461044790611779565b6104fe338383610ca3565b610947848484610502565b61058c3385858585610d42565b606061043282610e6d565b60008281526007602052604090206001015461097a81610b16565b61058c8383610bb7565b6001600160a01b03918216600090815260056020908152604080832093909416825291909152205460ff1690565b60006001600160e01b03198216637965db0b60e01b1480610432575061043282610f7e565b6000818152600260205260408120546001600160a01b03168061043257604051637e27328960e01b815260048101849052602401610528565b6105ea8383836001610fa3565b6000828152600260205260408120546001600160a01b0390811690831615610a4a57610a4a8184866110a9565b6001600160a01b03811615610a8857610a67600085600080610fa3565b6001600160a01b038116600090815260036020526040902080546000190190555b6001600160a01b03851615610ab7576001600160a01b0385166000908152600360205260409020805460010190555b60008481526002602052604080822080546001600160a01b0319166001600160a01b0389811691821790925591518793918516917fddf252ad1be2c89b69c2b068fc378daa952ba7f163c4a11628f55a4df523b3ef91a4949350505050565b610b20813361110d565b50565b6000610b2f83836108f7565b610baf5760008381526007602090815260408083206001600160a01b03861684529091529020805460ff19166001179055610b673390565b6001600160a01b0316826001600160a01b0316847f2f8788117e7eff1d82e926ec794901d17c78024a50270940304540a733656f0d60405160405180910390a4506001610432565b506000610432565b6000610bc383836108f7565b15610baf5760008381526007602090815260408083206001600160a01b0386168085529252808320805460ff1916905551339286917ff6391f5c32d9c69d2a47ea670b442974b53935d1edc7fd64eb21e047a839171b9190a4506001610432565b6104fe828260405180602001604052806000815250611146565b6000828152600660205260409020610c568282611839565b506040518281527ff8e1a15aba9398e019f0b49df1a4fde98ee17ae345cb5f6b5e2c27f5033e8ce79060200160405180910390a15050565b60008082118015610432575050600854101590565b6001600160a01b038216610cd557604051630b61174360e31b81526001600160a01b0383166004820152602401610528565b6001600160a01b03838116600081815260056020908152604080832094871680845294825291829020805460ff191686151590811790915591519182527f17307eab39ab6107e8899845ad3d59bd9653f200f220920489ca2b5937696c31910160405180910390a3505050565b6001600160a01b0383163b15610e6657604051630a85bd0160e11b81526001600160a01b0384169063150b7a0290610d849088908890879087906004016116d6565b6020604051808303816000875af1925050508015610dbf575060408051601f3d908101601f19168201909252610dbc918101906118f9565b60015b610e28573d808015610ded576040519150601f19603f3d011682016040523d82523d6000602084013e610df2565b606091505b508051600003610e2057604051633250574960e11b81526001600160a01b0385166004820152602401610528565b805160208201fd5b6001600160e01b03198116630a85bd0160e11b14610e6457604051633250574960e11b81526001600160a01b0385166004820152602401610528565b505b5050505050565b6060610e78826109d7565b5060008281526006602052604081208054610e9290611779565b80601f0160208091040260200160405190810160405280929190818152602001828054610ebe90611779565b8015610f0b5780601f10610ee057610100808354040283529160200191610f0b565b820191906000526020600020905b815481529060010190602001808311610eee57829003601f168201915b505050505090506000610f2960408051602081019091526000815290565b90508051600003610f3b575092915050565b815115610f6d578082604051602001610f55929190611916565b60405160208183030381529060405292505050919050565b610f768461115e565b949350505050565b60006001600160e01b03198216632483248360e11b14806104325750610432826111d3565b8080610fb757506001600160a01b03821615155b15611079576000610fc7846109d7565b90506001600160a01b03831615801590610ff35750826001600160a01b0316816001600160a01b031614155b801561100657506110048184610984565b155b1561102f5760405163a9fbf51f60e01b81526001600160a01b0384166004820152602401610528565b81156110775783856001600160a01b0316826001600160a01b03167f8c5be1e5ebec7d5bd14f71427d1e84f3dd0314c0f7b2291e5b200ac8c7c3b92560405160405180910390a45b505b5050600090815260046020526040902080546001600160a01b0319166001600160a01b0392909216919091179055565b6110b4838383611223565b6105ea576001600160a01b0383166110e257604051637e27328960e01b815260048101829052602401610528565b60405163177e802f60e01b81526001600160a01b038316600482015260248101829052604401610528565b61111782826108f7565b6104fe5760405163e2517d3f60e01b81526001600160a01b038216600482015260248101839052604401610528565b6111508383611286565b6105ea336000858585610d42565b6060611169826109d7565b50600061118160408051602081019091526000815290565b905060008151116111a157604051806020016040528060008152506111cc565b806111ab846112eb565b6040516020016111bc929190611916565b6040516020818303038152906040525b9392505050565b60006001600160e01b031982166380ac58cd60e01b148061120457506001600160e01b03198216635b5e139f60e01b145b8061043257506301ffc9a760e01b6001600160e01b0319831614610432565b60006001600160a01b03831615801590610f765750826001600160a01b0316846001600160a01b0316148061125d575061125d8484610984565b80610f765750506000908152600460205260409020546001600160a01b03908116911614919050565b6001600160a01b0382166112b057604051633250574960e11b815260006004820152602401610528565b60006112be83836000610a1d565b90506001600160a01b038116156105ea576040516339e3563760e11b815260006004820152602401610528565b606060006112f88361137e565b600101905060008167ffffffffffffffff811115611318576113186115b3565b6040519080825280601f01601f191660200182016040528015611342576020820181803683370190505b5090508181016020015b600019016f181899199a1a9b1b9c1cb0b131b232b360811b600a86061a8153600a850494508461134c57509392505050565b60008072184f03e93ff9f4daa797ed6e38ed64bf6a1f0160401b83106113bd5772184f03e93ff9f4daa797ed6e38ed64bf6a1f0160401b830492506040015b6d04ee2d6d415b85acef810000000083106113e9576d04ee2d6d415b85acef8100000000830492506020015b662386f26fc10000831061140757662386f26fc10000830492506010015b6305f5e100831061141f576305f5e100830492506008015b612710831061143357612710830492506004015b60648310611445576064830492506002015b600a83106104325760010192915050565b6001600160e01b031981168114610b2057600080fd5b60006020828403121561147e57600080fd5b81356111cc81611456565b60005b838110156114a457818101518382015260200161148c565b50506000910152565b600081518084526114c5816020860160208601611489565b601f01601f19169290920160200192915050565b6020815260006111cc60208301846114ad565b6000602082840312156114fe57600080fd5b5035919050565b80356001600160a01b038116811461151c57600080fd5b919050565b6000806040838503121561153457600080fd5b61153d83611505565b946020939093013593505050565b60008060006060848603121561156057600080fd5b61156984611505565b925061157760208501611505565b9150604084013590509250925092565b6000806040838503121561159a57600080fd5b823591506115aa60208401611505565b90509250929050565b634e487b7160e01b600052604160045260246000fd5b600067ffffffffffffffff808411156115e4576115e46115b3565b604051601f8501601f19908116603f0116810190828211818310171561160c5761160c6115b3565b8160405280935085815286868601111561162557600080fd5b858560208301376000602087830101525050509392505050565b6000806000806080858703121561165557600080fd5b61165e85611505565b935061166c60208601611505565b925060408501359150606085013567ffffffffffffffff81111561168f57600080fd5b8501601f810187136116a057600080fd5b6116af878235602084016115c9565b91505092959194509250565b6000602082840312156116cd57600080fd5b6111cc82611505565b6001600160a01b0385811682528416602082015260408101839052608060608201819052600090611709908301846114ad565b9695505050505050565b6000806040838503121561172657600080fd5b61172f83611505565b91506020830135801515811461174457600080fd5b809150509250929050565b6000806040838503121561176257600080fd5b61176b83611505565b91506115aa60208401611505565b600181811c9082168061178d57607f821691505b6020821081036117ad57634e487b7160e01b600052602260045260246000fd5b50919050565b6000600182016117d357634e487b7160e01b600052601160045260246000fd5b5060010190565b828152604060208201526000610f7660408301846114ad565b601f8211156105ea57600081815260208120601f850160051c8101602086101561181a5750805b601f850160051c820191505b81811015610e6457828155600101611826565b815167ffffffffffffffff811115611853576118536115b3565b611867816118618454611779565b846117f3565b602080601f83116001811461189c57600084156118845750858301515b600019600386901b1c1916600185901b178555610e64565b600085815260208120601f198616915b828110156118cb578886015182559484019460019091019084016118ac565b50858210156118e95787850151600019600388901b60f8161c191681555b5050505050600190811b01905550565b60006020828403121561190b57600080fd5b81516111cc81611456565b60008351611928818460208801611489565b83519083019061193c818360208801611489565b0194935050505056fea264697066735822122054ad1b281c32aeb8023e85978028fc226e0c8a60235233b0ab1522375279be4864736f6c63430008140033",
  "linkReferences": {},
  "deployedLinkReferences": {}
}