{
  "_format": "hh-sol-artifact-1",
  "contractName": "MockUSDC",
  "sourceName": "contracts/MockUSDC.sol",
  "abi": [
    {
      "inputs": [],
      "stateMutability": "nonpayable",
      "type": "constructor"
    },
    {
      "inputs": [
        {
          "internalType": "address",
          "name": "spender",
          "type": "address"
        },
        {
          "internalType": "uint256",
          "name": "allowance",
          "type": "uint256"
        },
        {
          "internalType": "uint256",
          "name": "needed",
          "type": "uint256"
        }
      ],
      "name": "ERC20InsufficientAllowance",
      "type": "error"
    },
    {
      "inputs": [
        {
          "internalType": "address",
          "name": "sender",
          "type": "address"
        },
        {
          "internalType": "uint256",
          "name": "balance",
          "type": "uint256"
        },
        {
          "internalType": "uint256",
          "name": "needed",
          "type": "uint256"
        }
      ],
      "name": "ERC20InsufficientBalance",
      "type": "error"
    },
    {
      "inputs": [
        {
          "internalType": "address",
          "name": "approver",
          "type": "address"
        }
      ],
      "name": "ERC20InvalidApprover",
      "type": "error"
    },
    {
      "inputs": [
        {
          "internalType": "address",
          "name": "receiver",
          "type": "address"
        }
      ],
      "name": "ERC20InvalidReceiver",
      "type": "error"
    },
    {
      "inputs": [
        {
          "internalType": "address",
          "name": "sender",
          "type": "address"
        }
      ],
      "name": "ERC20InvalidSender",
      "type": "error"
    },
    {
      "inputs": [
        {
          "internalType": "address",
          "name": "spender",
          "type": "address"
        }
      ],
      "name": "ERC20InvalidSpender",
      "type": "error"
    },
    {
      "inputs": [
        {
          "internalType": "address",
          "name": "owner",
          "type": "address"
        }
      ],
      "name": "OwnableInvalidOwner",
      "type": "error"
    },
    {
      "inputs": [
        {
          "internalType": "address",
          "name": "account",
          "type": "address"
        }
      ],
      "name": "OwnableUnauthorizedAccount",
      "type": "error"
    },
    {
      "anonymous": false,
      "inputs": [
        {
          "indexed": true,
          "internalType": "address",
          "name": "owner",
          "type": "address"
        },
        {
          "indexed": true,
          "internalType": "address",
          "name": "spender",
          "type": "address"
        },
        {
          "indexed": false,
          "internalType": "uint256",
          "name": "value",
          "type": "uint256"
        }
      ],
      "name": "Approval",
      "type": "event"
    },
    {
      "anonymous": false,
      "inputs": [
        {
          "indexed": true,
          "internalType": "address",
          "name": "previousOwner",
          "type": "address"
        },
        {
          "indexed": true,
          "internalType": "address",
          "name": "newOwner",
          "type": "address"
        }
      ],
      "name": "OwnershipTransferred",
      "type": "event"
    },
    {
      "anonymous": false,
      "inputs": [
        {
          "indexed": true,
          "internalType": "address",
          "name": "from",
          "type": "address"
        },
        {
          "indexed": true,
          "internalType": "address",
          "name": "to",
          "type": "address"
        },
        {
          "indexed": false,
          "internalType": "uint256",
          "name": "value",
          "type": "uint256"
        }
      ],
      "name": "Transfer",
      "type": "event"
    },
    {
      "inputs": [
        {
          "internalType": "address",
          "name": "owner",
          "type": "address"
        },
        {
          "internalType": "address",
          "name": "spender",
          "type": "address"
        }
      ],
      "name": "allowance",
      "outputs": [
        {
          "internalType": "uint256",
          "name": "",
          "type": "uint256"
        }
      ],
      "stateMutability": "view",
      "type": "function"
    },
    {
      "inputs": [
        {
          "internalType": "address",
          "name": "spender",
          "type": "address"
        },
        {
          "internalType": "uint256",
          "name": "value",
          "type": "uint256"
        }
      ],
      "name": "approve",
      "outputs": [
        {
          "internalType": "bool",
          "name": "",
          "type": "bool"
        }
      ],
      "stateMutability": "nonpayable",
      "type": "function"
    },
    {
      "inputs": [
        {
          "internalType": "address",
          "name": "account",
          "type": "address"
        }
      ],
      "name": "balanceOf",
      "outputs": [
        {
          "internalType": "uint256",
          "name": "",
          "type": "uint256"
        }
      ],
      "stateMutability": "view",
      "type": "function"
    },
    {
      "inputs": [],
      "name": "decimals",
      "outputs": [
        {
          "internalType": "uint8",
          "name": "",
          "type": "uint8"
        }
      ],
      "stateMutability": "view",
      "type": "function"
    },
    {
      "inputs": [],
      "name": "faucet",
      "outputs": [],
      "stateMutability": "nonpayable",
      "type": "function"
    },
    {
      "inputs": [
        {
          "internalType": "address",
          "name": "to",
          "type": "address"
        },
        {
          "internalType": "uint256",
          "name": "amount",
          "type": "uint256"
        }
      ],
      "name": "mint",
      "outputs": [],
      "stateMutability": "nonpayable",
      "type": "function"
    },
    {
      "inputs": [],
      "name": "name",
      "outputs": [
        {
          "internalType": "string",
          "name": "",
          "type": "string"
        }
      ],
      "stateMutability": "view",
      "type": "function"
    },
    {
      "inputs": [],
      "name": "owner",
      "outputs": [
        {
          "internalType": "address",
          "name": "",
          "type": "address"
        }
      ],
      "stateMutability": "view",
      "type": "function"
    },
    {
      "inputs": [],
      "name": "renounceOwnership",
      "outputs": [],
      "stateMutability": "nonpayable",
      "type": "function"
    },
    {
      "inputs": [],
      "name": "symbol",
      "outputs": [
        {
          "internalType": "string",
          "name": "",
          "type": "string"
        }
      ],
      "stateMutability": "view",
      "type": "function"
    },
    {
      "inputs": [],
      "name": "totalSupply",
      "outputs": [
        {
          "internalType": "uint256",
          "name": "",
          "type": "uint256"
        }
      ],
      "stateMutability": "view",
      "type": "function"
    },
    {
      "inputs": [
        {
          "internalType": "address",
          "name": "to",
          "type": "address"
        },
        {
          "internalType": "uint256",
          "name": "value",
          "type": "uint256"
        }
      ],
      "name": "transfer",
      "outputs": [
        {
          "internalType": "bool",
          "name": "",
          "type": "bool"
        }
      ],
      "stateMutability": "nonpayable",
      "type": "function"
    },
    {
      "inputs": [
        {
          "internalType": "address",
          "name": "from",
          "type": "address"
        },
        {
          "internalType": "address",
          "name": "to",
          "type": "address"
        },
        {
          "internalType": "uint256",
          "name": "value",
          "type": "uint256"
        }
      ],
      "name": "transferFrom",
      "outputs": [
        {
          "internalType": "bool",
          "name": "",
          "type": "bool"
        }
      ],
      "stateMutability": "nonpayable",
      "type": "function"
    },
    {
      "inputs": [
        {
          "internalType": "address",
          "name": "newOwner",
          "type": "address"
        }
      ],
      "name": "transferOwnership",
      "outputs": [],
      "stateMutability": "nonpayable",
      "type": "function"
    }
  ],
  "bytecode": "0x60806040526005805460ff60a01b1916600360a11b1790553480156200002457600080fd5b5033604051806040016040528060098152602001684d6f636b205553444360b81b815250604051806040016040528060058152602001646d5553444360d81b815250816003908162000077919062000369565b50600462000086828262000369565b5050506001600160a01b038116620000b957604051631e4fbdf760e01b8152600060048201526024015b60405180910390fd5b620000c48162000101565b50600554620000fb903390620000e690600160a01b900460ff16600a6200054a565b620000f590620f424062000562565b62000153565b62000592565b600580546001600160a01b038381166001600160a01b0319831681179093556040519116919082907f8be0079c531659141344cd1fd0a4f28419497f9722a3daafe3b4186f6b6457e090600090a35050565b6001600160a01b0382166200017f5760405163ec442f0560e01b815260006004820152602401620000b0565b6200018d6000838362000191565b5050565b6001600160a01b038316620001c0578060026000828254620001b491906200057c565b90915550620002349050565b6001600160a01b03831660009081526020819052604090205481811015620002155760405163391434e360e21b81526001600160a01b03851660048201526024810182905260448101839052606401620000b0565b6001600160a01b03841660009081526020819052604090209082900390555b6001600160a01b038216620002525760028054829003905562000271565b6001600160a01b03821660009081526020819052604090208054820190555b816001600160a01b0316836001600160a01b03167fddf252ad1be2c89b69c2b068fc378daa952ba7f163c4a11628f55a4df523b3ef83604051620002b791815260200190565b60405180910390a3505050565b634e487b7160e01b600052604160045260246000fd5b600181811c90821680620002ef57607f821691505b6020821081036200031057634e487b7160e01b600052602260045260246000fd5b50919050565b601f8211156200036457600081815260208120601f850160051c810160208610156200033f5750805b601f850160051c820191505b8181101562000360578281556001016200034b565b5050505b505050565b81516001600160401b03811115620003855762000385620002c4565b6200039d81620003968454620002da565b8462000316565b602080601f831160018114620003d55760008415620003bc5750858301515b600019600386901b1c1916600185901b17855562000360565b600085815260208120601f198616915b828110156200040657888601518255948401946001909101908401620003e5565b5085821015620004255787850151600019600388901b60f8161c191681555b5050505050600190811b01905550565b634e487b7160e01b600052601160045260246000fd5b600181815b808511156200048c57816000190482111562000470576200047062000435565b808516156200047e57918102915b93841c939080029062000450565b509250929050565b600082620004a55750600162000544565b81620004b45750600062000544565b8160018114620004cd5760028114620004d857620004f8565b600191505062000544565b60ff841115620004ec57620004ec62000435565b50506001821b62000544565b5060208310610133831016604e8410600b84101617156200051d575081810a62000544565b6200052983836200044b565b806000190482111562000540576200054062000435565b0290505b92915050565b60006200055b60ff84168362000494565b9392505050565b808202811582820484141762000544576200054462000435565b8082018082111562000544576200054462000435565b610a3180620005a26000396000f3fe608060405234801561001057600080fd5b50600436106100ea5760003560e01c8063715018a61161008c578063a9059cbb11610066578063a9059cbb146101dd578063dd62ed3e146101f0578063de5f72fd14610229578063f2fde38b1461023157600080fd5b8063715018a6146101b25780638da5cb5b146101ba57806395d89b41146101d557600080fd5b806323b872dd116100c857806323b872dd14610142578063313ce5671461015557806340c10f191461017457806370a082311461018957600080fd5b806306fdde03146100ef578063095ea7b31461010d57806318160ddd14610130575b600080fd5b6100f7610244565b6040516101049190610769565b60405180910390f35b61012061011b3660046107d3565b6102d6565b6040519015158152602001610104565b6002545b604051908152602001610104565b6101206101503660046107fd565b6102f0565b600554600160a01b900460ff1660405160ff9091168152602001610104565b6101876101823660046107d3565b610314565b005b610134610197366004610839565b6001600160a01b031660009081526020819052604090205490565b610187610322565b6005546040516001600160a01b039091168152602001610104565b6100f7610336565b6101206101eb3660046107d3565b610345565b6101346101fe36600461085b565b6001600160a01b03918216600090815260016020908152604080832093909416825291909152205490565b610187610353565b61018761023f366004610839565b610382565b6060600380546102539061088e565b80601f016020809104026020016040519081016040528092919081815260200182805461027f9061088e565b80156102cc5780601f106102a1576101008083540402835291602001916102cc565b820191906000526020600020905b8154815290600101906020018083116102af57829003601f168201915b5050505050905090565b6000336102e48185856103c5565b60019150505b92915050565b6000336102fe8582856103d7565b610309858585610456565b506001949350505050565b61031e82826104b5565b5050565b61032a6104eb565b6103346000610518565b565b6060600480546102539061088e565b6000336102e4818585610456565b60055461033490339061037190600160a01b900460ff16600a6109c2565b61037d906127106109d1565b6104b5565b61038a6104eb565b6001600160a01b0381166103b957604051631e4fbdf760e01b8152600060048201526024015b60405180910390fd5b6103c281610518565b50565b6103d2838383600161056a565b505050565b6001600160a01b03838116600090815260016020908152604080832093861683529290522054600019811015610450578181101561044157604051637dc7a0d960e11b81526001600160a01b038416600482015260248101829052604481018390526064016103b0565b6104508484848403600061056a565b50505050565b6001600160a01b03831661048057604051634b637e8f60e11b8152600060048201526024016103b0565b6001600160a01b0382166104aa5760405163ec442f0560e01b8152600060048201526024016103b0565b6103d283838361063f565b6001600160a01b0382166104df5760405163ec442f0560e01b8152600060048201526024016103b0565b61031e6000838361063f565b6005546001600160a01b031633146103345760405163118cdaa760e01b81523360048201526024016103b0565b600580546001600160a01b038381166001600160a01b0319831681179093556040519116919082907f8be0079c531659141344cd1fd0a4f28419497f9722a3daafe3b4186f6b6457e090600090a35050565b6001600160a01b0384166105945760405163e602df0560e01b8152600060048201526024016103b0565b6001600160a01b0383166105be57604051634a1406b160e11b8152600060048201526024016103b0565b6001600160a01b038085166000908152600160209081526040808320938716835292905220829055801561045057826001600160a01b0316846001600160a01b03167f8c5be1e5ebec7d5bd14f71427d1e84f3dd0314c0f7b2291e5b200ac8c7c3b9258460405161063191815260200190565b60405180910390a350505050565b6001600160a01b03831661066a57806002600082825461065f91906109e8565b909155506106dc9050565b6001600160a01b038316600090815260208190526040902054818110156106bd5760405163391434e360e21b81526001600160a01b038516600482015260248101829052604481018390526064016103b0565b6001600160a01b03841660009081526020819052604090209082900390555b6001600160a01b0382166106f857600280548290039055610717565b6001600160a01b03821660009081526020819052604090208054820190555b816001600160a01b0316836001600160a01b03167fddf252ad1be2c89b69c2b068fc378daa952ba7f163c4a11628f55a4df523b3ef8360405161075c91815260200190565b60405180910390a3505050565b600060208083528351808285015260005b818110156107965785810183015185820160400152820161077a565b506000604082860101526040601f19601f8301168501019250505092915050565b80356001600160a01b03811681146107ce57600080fd5b919050565b600080604083850312156107e657600080fd5b6107ef836107b7565b946020939093013593505050565b60008060006060848603121561081257600080fd5b61081b846107b7565b9250610829602085016107b7565b9150604084013590509250925092565b60006020828403121561084b57600080fd5b610854826107b7565b9392505050565b6000806040838503121561086e57600080fd5b610877836107b7565b9150610885602084016107b7565b90509250929050565b600181811c908216806108a257607f821691505b6020821081036108c257634e487b7160e01b600052602260045260246000fd5b50919050565b634e487b7160e01b600052601160045260246000fd5b600181815b808511156109195781600019048211156108ff576108ff6108c8565b8085161561090c57918102915b93841c93908002906108e3565b509250929050565b600082610930575060016102ea565b8161093d575060006102ea565b8160018114610953576002811461095d57610979565b60019150506102ea565b60ff84111561096e5761096e6108c8565b50506001821b6102ea565b5060208310610133831016604e8410600b841016171561099c575081810a6102ea565b6109a683836108de565b80600019048211156109ba576109ba6108c8565b029392505050565b600061085460ff841683610921565b80820281158282048414176102ea576102ea6108c8565b808201808211156102ea576102ea6108c856fea264697066735822122036aac1ff23e5ef78a2f3ec17d0c8af09d6a800ff89255417c1ef9c9e57de7cea64736f6c63430008140033",
  "linkReferences": {},
  "deployedLinkReferences": {}
}