{
  "_format": "hh-sol-artifact-1",
  "contractName": "ReputationRegistry",
  "sourceName": "contracts/ReputationRegistry.sol",
  "abi": [
    {
      "inputs": [],
      "stateMutability": "nonpayable",
      "type": "constructor"
    },
    {
      "inputs": [
        {
          "internalType": "address",
          "name": "owner",
          "type": "address"
        }
      ],
      "name": "OwnableInvalidOwner",
      "type": "error"
    },
    {
      "inputs": [
        {
          "internalType": "address",
          "name": "account",
          "type": "address"
        }
      ],
      "name": "OwnableUnauthorizedAccount",
      "type": "error"
    },
    {
      "anonymous": false,
      "inputs": [
        {
          "indexed": true,
          "internalType": "address",
          "name": "previousOwner",
          "type": "address"
        },
        {
          "indexed": true,
          "internalType": "address",
          "name": "newOwner",
          "type": "address"
        }
      ],
      "name": "OwnershipTransferred",
      "type": "event"
    },
    {
      "anonymous": false,
      "inputs": [
        {
          "indexed": true,
          "internalType": "address",
          "name": "user",
          "type": "address"
        },
        {
          "indexed": false,
          "internalType": "int256",
          "name": "newScore",
          "type": "int256"
        },
        {
          "indexed": false,
          "internalType": "int256",
          "name": "change",
          "type": "int256"
        }
      ],
      "name": "ReputationUpdated",
      "type": "event"
    },
    {
      "anonymous": false,
      "inputs": [
        {
          "indexed": true,
          "internalType": "address",
          "name": "updater",
          "type": "address"
        }
      ],
      "name": "UpdaterAuthorized",
      "type": "event"
    },
    {
      "anonymous": false,
      "inputs": [
        {
          "indexed": true,
          "internalType": "address",
          "name": "updater",
          "type": "address"
        }
      ],
      "name": "UpdaterRevoked",
      "type": "event"
    },
    {
      "anonymous": false,
      "inputs": [
        {
          "indexed": true,
          "internalType": "address",
          "name": "user",
          "type": "address"
        }
      ],
      "name": "UserBlacklisted",
      "type": "event"
    },
    {
      "anonymous": false,
      "inputs": [
        {
          "indexed": true,
          "internalType": "address",
          "name": "user",
          "type": "address"
        }
      ],
      "name": "UserWhitelisted",
      "type": "event"
    },
    {
      "inputs": [
        {
          "internalType": "address",
          "name": "updater",
          "type": "address"
        }
      ],
      "name": "authorizeUpdater",
      "outputs": [],
      "stateMutability": "nonpayable",
      "type": "function"
    },
    {
      "inputs": [
        {
          "internalType": "address",
          "name": "",
          "type": "address"
        }
      ],
      "name": "authorizedUpdaters",
      "outputs": [
        {
          "internalType": "bool",
          "name": "",
          "type": "bool"
        }
      ],
      "stateMutability": "view",
      "type": "function"
    },
    {
      "inputs": [
        {
          "internalType": "address",
          "name": "user",
          "type": "address"
        }
      ],
      "name": "blacklistUser",
      "outputs": [],
      "stateMutability": "nonpayable",
      "type": "function"
    },
    {
      "inputs": [
        {
          "internalType": "address",
          "name": "user",
          "type": "address"
        }
      ],
      "name": "getReputation",
      "outputs": [
        {
          "internalType": "int256",
          "name": "score",
          "type": "int256"
        },
        {
          "internalType": "bool",
          "name": "blacklisted",
          "type": "bool"
        },
        {
          "internalType": "uint256",
          "name": "totalTransactions",
          "type": "uint256"
        },
        {
          "internalType": "uint256",
          "name": "successfulTransactions",
          "type": "uint256"
        },
        {
          "internalType": "uint256",
          "name": "defaultedTransactions",
          "type": "uint256"
        }
      ],
      "stateMutability": "view",
      "type": "function"
    },
    {
      "inputs": [
        {
          "internalType": "address",
          "name": "user",
          "type": "address"
        }
      ],
      "name": "isUserTrusted",
      "outputs": [
        {
          "internalType": "bool",
          "name": "",
          "type": "bool"
        }
      ],
      "stateMutability": "view",
      "type": "function"
    },
    {
      "inputs": [],
      "name": "owner",
      "outputs": [
        {
          "internalType": "address",
          "name": "",
          "type": "address"
        }
      ],
      "stateMutability": "view",
      "type": "function"
    },
    {
      "inputs": [],
      "name": "renounceOwnership",
      "outputs": [],
      "stateMutability": "nonpayable",
      "type": "function"
    },
    {
      "inputs": [
        {
          "internalType": "address",
          "name": "",
          "type": "address"
        }
      ],
      "name": "reputations",
      "outputs": [
        {
          "internalType": "int256",
          "name": "score",
          "type": "int256"
        },
        {
          "internalType": "bool",
          "name": "blacklisted",
          "type": "bool"
        },
        {
          "internalType": "uint256",
          "name": "totalTransactions",
          "type": "uint256"
        },
        {
          "internalType": "uint256",
          "name": "successfulTransactions",
          "type": "uint256"
        },
        {
          "internalType": "uint256",
          "name": "defaultedTransactions",
          "type": "uint256"
        },
        {
          "internalType": "uint256",
          "name": "lastUpdated",
          "type": "uint256"
        }
      ],
      "stateMutability": "view",
      "type": "function"
    },
    {
      "inputs": [
        {
          "internalType": "address",
          "name": "updater",
          "type": "address"
        }
      ],
      "name": "revokeUpdater",
      "outputs": [],
      "stateMutability": "nonpayable",
      "type": "function"
    },
    {
      "inputs": [
        {
          "internalType": "address",
          "name": "newOwner",
          "type": "address"
        }
      ],
      "name": "transferOwnership",
      "outputs": [],
      "stateMutability": "nonpayable",
      "type": "function"
    },
    {
      "inputs": [
        {
          "internalType": "address",
          "name": "user",
          "type": "address"
        },
        {
          "internalType": "int256",
          "name": "points",
          "type": "int256"
        }
      ],
      "name": "updateReputation",
      "outputs": [],
      "stateMutability": "nonpayable",
      "type": "function"
    },
    {
      "inputs": [
        {
          "internalType": "address",
          "name": "user",
          "type": "address"
        }
      ],
      "name": "whitelistUser",
      "outputs": [],
      "stateMutability": "nonpayable",
      "type": "function"
    }
  ],
  "bytecode": "0x608060405234801561001057600080fd5b50338061003757604051631e4fbdf760e01b81526000600482015260240160405180910390fd5b61004081610060565b50336000908152600260205260409020805460ff191660011790556100b0565b600080546001600160a01b038381166001600160a01b0319831681178455604051919092169283917f8be0079c531659141344cd1fd0a4f28419497f9722a3daafe3b4186f6b6457e09190a35050565b610954806100bf6000396000f3fe608060405234801561001057600080fd5b50600436106100b45760003560e01c80638da5cb5b116100715780638da5cb5b146101995780638ff29cfe146101b45780639c89a0e2146101d75780639cbe609714610212578063f2fde38b14610225578063fcbca4561461023857600080fd5b806306fa15a7146100b95780633c932bef146101335780634a4c560d146101485780636a08b5111461015b578063715018a61461016e5780638ccdf0d314610176575b600080fd5b6101016100c7366004610854565b600160208190526000918252604090912080549181015460028201546003830154600484015460059094015460ff90931693919290919086565b604080519687529415156020870152938501929092526060840152608083015260a082015260c0015b60405180910390f35b610146610141366004610854565b61024b565b005b610146610156366004610854565b61029c565b61014661016936600461086f565b610321565b61014661055a565b610189610184366004610854565b61056e565b604051901515815260200161012a565b6000546040516001600160a01b03909116815260200161012a565b6101896101c2366004610854565b60026020526000908152604090205460ff1681565b6101ea6101e5366004610854565b6105f7565b604080519586529315156020860152928401919091526060830152608082015260a00161012a565b610146610220366004610854565b6106aa565b610146610233366004610854565b6106fe565b610146610246366004610854565b61073c565b6102536107bb565b6001600160a01b038116600081815260026020526040808220805460ff19169055517f27e810a75a9534f49f3874cd6aef1cd8ccd4fd9e24acb4c3813ba552851ef7969190a250565b6102a46107bb565b6001600160a01b0381166102d35760405162461bcd60e51b81526004016102ca90610899565b60405180910390fd5b6001600160a01b0381166000818152600160208190526040808320909101805460ff19169055517f7409cb8e690bcd1487fd4fd27dad3fa92388d201ba6f953631d6d6b26299f8499190a250565b3360009081526002602052604090205460ff168061034957506000546001600160a01b031633145b6103865760405162461bcd60e51b815260206004820152600e60248201526d139bdd08185d5d1a1bdc9a5e995960921b60448201526064016102ca565b6001600160a01b0382166103ac5760405162461bcd60e51b81526004016102ca90610899565b6001600160a01b0382166000908152600160208190526040909120015460ff161561040f5760405162461bcd60e51b8152602060048201526013602482015272155cd95c881a5cc8189b1858dadb1a5cdd1959606a1b60448201526064016102ca565b6001600160a01b0382166000908152600160205260408120600581015490910361043857606481555b80548282600061044883856108dd565b909155505081546000131561045c57600082555b60028201805490600061046e83610905565b919050555060008313156104985760038201805490600061048e83610905565b91905055506104ba565b6009198312156104ba576004820180549060006104b483610905565b91905055505b4260058301558154600a1261050e576001828101805460ff191690911790556040516001600160a01b038516907f7f8b7dc89dae85811a7a85800b892b5816ad5d381c856f1b56490f8fc470c9cb90600090a25b815460408051918252602082018590526001600160a01b038616917f16d27e2cff7b6c62796ec35e40b30e11f94675cc9fded1762c7c11aaa15cb220910160405180910390a250505050565b6105626107bb565b61056c60006107e8565b565b6001600160a01b0381166000908152600160208181526040808420815160c081018352815481529381015460ff1615159284019290925260028201549083015260038101546060830152600481015460808301526005015460a0820181905282036105dc5750600192915050565b80602001511580156105f057508051603213155b9392505050565b6001600160a01b0381166000908152600160208181526040808420815160c081018352815481529381015460ff1615159284019290925260028201549083015260038101546060830152600481015460808301526005015460a082018190528291829182918291820361067c57606460008060008095509550955095509550506106a1565b8060000151816020015182604001518360600151846080015195509550955095509550505b91939590929450565b6106b26107bb565b6001600160a01b038116600081815260026020526040808220805460ff19166001179055517ffbc99308a04b9b530a8dbc7eb620a7597c4b92ff15390ab23ffdd979b9c592e49190a250565b6107066107bb565b6001600160a01b03811661073057604051631e4fbdf760e01b8152600060048201526024016102ca565b610739816107e8565b50565b6107446107bb565b6001600160a01b03811661076a5760405162461bcd60e51b81526004016102ca90610899565b6001600160a01b03811660008181526001602081905260408083208201805460ff1916909217909155517f7f8b7dc89dae85811a7a85800b892b5816ad5d381c856f1b56490f8fc470c9cb9190a250565b6000546001600160a01b0316331461056c5760405163118cdaa760e01b81523360048201526024016102ca565b600080546001600160a01b038381166001600160a01b0319831681178455604051919092169283917f8be0079c531659141344cd1fd0a4f28419497f9722a3daafe3b4186f6b6457e09190a35050565b80356001600160a01b038116811461084f57600080fd5b919050565b60006020828403121561086657600080fd5b6105f082610838565b6000806040838503121561088257600080fd5b61088b83610838565b946020939093013593505050565b602080825260149082015273496e76616c69642075736572206164647265737360601b604082015260600190565b634e487b7160e01b600052601160045260246000fd5b80820182811260008312801582168215821617156108fd576108fd6108c7565b505092915050565b600060018201610917576109176108c7565b506001019056fea2646970667358221220f71a551a4b9ef5d53e257e8da5b00f33e8e01de6e9a7fa477d9f3af91226afde64736f6c63430008140033",
  "linkReferences": {},
  "deployedLinkReferences": {}
}